{
  "contractName": "Counter",
  "abi": [
    {
      "inputs": [],
      "payable": false,
      "stateMutability": "nonpayable",
      "type": "constructor"
    },
    {
      "constant": true,
      "inputs": [],
      "name": "getCreator",
      "outputs": [
        {
          "name": "",
          "type": "address"
        }
      ],
      "payable": false,
      "stateMutability": "view",
      "type": "function"
    },
    {
      "constant": true,
      "inputs": [],
      "name": "getMyNumber",
      "outputs": [
        {
          "name": "",
          "type": "uint256"
        }
      ],
      "payable": false,
      "stateMutability": "view",
      "type": "function"
    },
    {
      "constant": false,
      "inputs": [
        {
          "name": "myNewNumber",
          "type": "uint256"
        }
      ],
      "name": "setMyNumber",
      "outputs": [],
      "payable": false,
      "stateMutability": "nonpayable",
      "type": "function"
    },
    {
      "constant": false,
      "inputs": [],
      "name": "kill",
      "outputs": [],
      "payable": false,
      "stateMutability": "nonpayable",
      "type": "function"
    }
  ],
  "bytecode": "0x608060405234801561001057600080fd5b50336000806101000a81548173ffffffffffffffffffffffffffffffffffffffff021916908373ffffffffffffffffffffffffffffffffffffffff1602179055506003600181905550610227806100686000396000f300608060405260043610610062576000357c0100000000000000000000000000000000000000000000000000000000900463ffffffff1680630ee2cb101461006757806341c0e1b5146100be5780636ffd773c146100d5578063b32e737f14610102575b600080fd5b34801561007357600080fd5b5061007c61012d565b604051808273ffffffffffffffffffffffffffffffffffffffff1673ffffffffffffffffffffffffffffffffffffffff16815260200191505060405180910390f35b3480156100ca57600080fd5b506100d3610156565b005b3480156100e157600080fd5b50610100600480360381019080803590602001909291905050506101e7565b005b34801561010e57600080fd5b506101176101f1565b6040518082815260200191505060405180910390f35b60008060009054906101000a900473ffffffffffffffffffffffffffffffffffffffff16905090565b6000809054906101000a900473ffffffffffffffffffffffffffffffffffffffff1673ffffffffffffffffffffffffffffffffffffffff163373ffffffffffffffffffffffffffffffffffffffff1614156101e5576000809054906101000a900473ffffffffffffffffffffffffffffffffffffffff1673ffffffffffffffffffffffffffffffffffffffff16ff5b565b8060018190555050565b60006001549050905600a165627a7a7230582002aa5e2e753ede50d0fb98cdd525da69b1cf07123d9552dfdcaafbfcee5933410029",
  "source": "pragma solidity ^0.4.15;\r\n\r\ncontract Counter {\r\n    address creator;\r\n    uint256 myNumber;\r\n\r\n    constructor() public {\r\n        creator = msg.sender;\r\n        myNumber = 3;\r\n    }\r\n\r\n    function getCreator() public view returns(address) {\r\n        return creator;\r\n    }\r\n\r\n    function getMyNumber() public view returns(uint256) {\r\n        return myNumber;\r\n    }\r\n\r\n    function setMyNumber(uint256 myNewNumber) public {\r\n        myNumber = myNewNumber;\r\n    }\r\n\r\n    function kill() public {\r\n        if(msg.sender == creator) {\r\n            selfdestruct(creator);\r\n        }\r\n    }\r\n}",
  "sourcePath": "C:\\Users\\Graham.Nelson\\Desktop\\MeetGeek\\Simple-Counter-Contract\\contracts\\Counter.sol",
  "compiler": {
    "name": "solc",
    "version": "0.4.24+commit.e67f0147.Emscripten.clang"
  },
  "schemaVersion": "2.0.1",
  "updatedAt": "2018-07-09T12:45:36.720Z"
}